{
  "transactions": [
    {
      "hash": "0x846f26194453a41c23f9627666131d987a76c3c3fcdfbb73891aec02cac7f65d",
      "transactionType": "CREATE",
      "contractName": "BoxV2",
      "contractAddress": "0x1d43f42fc8e07a88f020c6424af3773015ca6692",
      "function": null,
      "arguments": null,
      "transaction": {
        "from": "0x1aabddec6527c9d37fe4ce191cf96115a101539e",
        "gas": "0xcf2e6",
        "value": "0x0",
        "input": "0x60a06040523060805234801561001457600080fd5b5061001d610022565b6100d4565b7ff0c57e16840df040f15088dc2f81fe391c3923bec73e23a9662efc9c229c6a00805468010000000000000000900460ff16156100725760405163f92ee8a960e01b815260040160405180910390fd5b80546001600160401b03908116146100d15780546001600160401b0319166001600160401b0390811782556040519081527fc7f505b2f371ae2175ee4913f4499e1f2633a7b5936321eed1cdaeb6115181d29060200160405180910390a15b50565b608051610a616100fd6000396000818161039c015281816103c5015261050b0152610a616000f3fe6080604052600436106100915760003560e01c8063715018a611610059578063715018a6146101185780638129fc1c1461012d5780638da5cb5b14610142578063ad3cb1cc14610189578063f2fde38b146101c757600080fd5b806320965255146100965780634f1ef286146100ba57806352d1902d146100cf57806354fd4d50146100e457806355241077146100f8575b600080fd5b3480156100a257600080fd5b506000545b6040519081526020015b60405180910390f35b6100cd6100c8366004610889565b6101e7565b005b3480156100db57600080fd5b506100a7610206565b3480156100f057600080fd5b5060026100a7565b34801561010457600080fd5b506100cd61011336600461094b565b600055565b34801561012457600080fd5b506100cd610223565b34801561013957600080fd5b506100cd610237565b34801561014e57600080fd5b507f9016d09d72d40fdae2fd8ceac6b6234c7706214fd39c1cd1e609a0528c199300546040516001600160a01b0390911681526020016100b1565b34801561019557600080fd5b506101ba604051806040016040528060058152602001640352e302e360dc1b81525081565b6040516100b19190610988565b3480156101d357600080fd5b506100cd6101e23660046109bb565b61034e565b6101ef610391565b6101f882610436565b610202828261043e565b5050565b6000610210610500565b50600080516020610a0c83398151915290565b61022b610549565b61023560006105a4565b565b7ff0c57e16840df040f15088dc2f81fe391c3923bec73e23a9662efc9c229c6a008054600160401b810460ff16159067ffffffffffffffff1660008115801561027d5750825b905060008267ffffffffffffffff16600114801561029a5750303b155b9050811580156102a8575080155b156102c65760405163f92ee8a960e01b815260040160405180910390fd5b845467ffffffffffffffff1916600117855583156102f057845460ff60401b1916600160401b1785555b6102f933610615565b610301610626565b831561034757845460ff60401b19168555604051600181527fc7f505b2f371ae2175ee4913f4499e1f2633a7b5936321eed1cdaeb6115181d29060200160405180910390a15b5050505050565b610356610549565b6001600160a01b03811661038557604051631e4fbdf760e01b8152600060048201526024015b60405180910390fd5b61038e816105a4565b50565b306001600160a01b037f000000000000000000000000000000000000000000000000000000000000000016148061041857507f00000000000000000000000000000000000000000000000000000000000000006001600160a01b031661040c600080516020610a0c833981519152546001600160a01b031690565b6001600160a01b031614155b156102355760405163703e46dd60e11b815260040160405180910390fd5b61038e610549565b816001600160a01b03166352d1902d6040518163ffffffff1660e01b8152600401602060405180830381865afa925050508015610498575060408051601f3d908101601f19168201909252610495918101906109d6565b60015b6104c057604051634c9c8ce360e01b81526001600160a01b038316600482015260240161037c565b600080516020610a0c83398151915281146104f157604051632a87526960e21b81526004810182905260240161037c565b6104fb838361062e565b505050565b306001600160a01b037f000000000000000000000000000000000000000000000000000000000000000016146102355760405163703e46dd60e11b815260040160405180910390fd5b3361057b7f9016d09d72d40fdae2fd8ceac6b6234c7706214fd39c1cd1e609a0528c199300546001600160a01b031690565b6001600160a01b0316146102355760405163118cdaa760e01b815233600482015260240161037c565b7f9016d09d72d40fdae2fd8ceac6b6234c7706214fd39c1cd1e609a0528c19930080546001600160a01b031981166001600160a01b03848116918217845560405192169182907f8be0079c531659141344cd1fd0a4f28419497f9722a3daafe3b4186f6b6457e090600090a3505050565b61061d610684565b61038e816106cd565b610235610684565b610637826106d5565b6040516001600160a01b038316907fbc7cd75a20ee27fd9adebab32041f755214dbc6bffa90cc0225b39da2e5c2d3b90600090a280511561067c576104fb828261073a565b6102026107b0565b7ff0c57e16840df040f15088dc2f81fe391c3923bec73e23a9662efc9c229c6a0054600160401b900460ff1661023557604051631afcd79f60e31b815260040160405180910390fd5b610356610684565b806001600160a01b03163b60000361070b57604051634c9c8ce360e01b81526001600160a01b038216600482015260240161037c565b600080516020610a0c83398151915280546001600160a01b0319166001600160a01b0392909216919091179055565b6060600080846001600160a01b03168460405161075791906109ef565b600060405180830381855af49150503d8060008114610792576040519150601f19603f3d011682016040523d82523d6000602084013e610797565b606091505b50915091506107a78583836107cf565b95945050505050565b34156102355760405163b398979f60e01b815260040160405180910390fd5b6060826107e4576107df8261082e565b610827565b81511580156107fb57506001600160a01b0384163b155b1561082457604051639996b31560e01b81526001600160a01b038516600482015260240161037c565b50805b9392505050565b80511561083e5780518082602001fd5b604051630a12f52160e11b815260040160405180910390fd5b80356001600160a01b038116811461086e57600080fd5b919050565b634e487b7160e01b600052604160045260246000fd5b6000806040838503121561089c57600080fd5b6108a583610857565b9150602083013567ffffffffffffffff808211156108c257600080fd5b818501915085601f8301126108d657600080fd5b8135818111156108e8576108e8610873565b604051601f8201601f19908116603f0116810190838211818310171561091057610910610873565b8160405282815288602084870101111561092957600080fd5b8260208601602083013760006020848301015280955050505050509250929050565b60006020828403121561095d57600080fd5b5035919050565b60005b8381101561097f578181015183820152602001610967565b50506000910152565b60208152600082518060208401526109a7816040850160208701610964565b601f01601f19169190910160400192915050565b6000602082840312156109cd57600080fd5b61082782610857565b6000602082840312156109e857600080fd5b5051919050565b60008251610a01818460208701610964565b919091019291505056fe360894a13ba1a3210667c828492db98dca3e2076cc3735a920a3ca505d382bbca264697066735822122093a473c828874eeb11fcf82d32be1aaffd2a884b0cbe1598144ab6d10bfed85f64736f6c63430008190033",
        "nonce": "0x7",
        "chainId": "0x13882"
      },
      "additionalContracts": [],
      "isFixedGasLimit": false
    },
    {
      "hash": "0x381dd9c2b6e92f63e748afacf51bc6e3d04430e613ba88187e03b0fdc2dc7d68",
      "transactionType": "CALL",
      "contractName": null,
      "contractAddress": "0x14453dc5d6d10bc7c9d8b22ac8814ec14e73a00e",
      "function": "upgradeToAndCall(address,bytes)",
      "arguments": [
        "0x1D43f42FC8e07A88F020C6424af3773015Ca6692",
        "0x"
      ],
      "transaction": {
        "from": "0x1aabddec6527c9d37fe4ce191cf96115a101539e",
        "to": "0x14453dc5d6d10bc7c9d8b22ac8814ec14e73a00e",
        "gas": "0xd6d1",
        "value": "0x0",
        "input": "0x4f1ef2860000000000000000000000001d43f42fc8e07a88f020c6424af3773015ca669200000000000000000000000000000000000000000000000000000000000000400000000000000000000000000000000000000000000000000000000000000000",
        "nonce": "0x8",
        "chainId": "0x13882"
      },
      "additionalContracts": [],
      "isFixedGasLimit": false
    }
  ],
  "receipts": [
    {
      "status": "0x1",
      "cumulativeGasUsed": "0x120e0c",
      "logs": [
        {
          "address": "0x1d43f42fc8e07a88f020c6424af3773015ca6692",
          "topics": [
            "0xc7f505b2f371ae2175ee4913f4499e1f2633a7b5936321eed1cdaeb6115181d2"
          ],
          "data": "0x000000000000000000000000000000000000000000000000ffffffffffffffff",
          "blockHash": "0xf47b3946b247a509dbb39952cc1b019bc036174206aae37132425c67ed48d3a7",
          "blockNumber": "0x9a84e1",
          "transactionHash": "0x846f26194453a41c23f9627666131d987a76c3c3fcdfbb73891aec02cac7f65d",
          "transactionIndex": "0x4",
          "logIndex": "0xd",
          "removed": false
        },
        {
          "address": "0x0000000000000000000000000000000000001010",
          "topics": [
            "0x4dfe1bbbcf077ddc3e01291eea2d5c70c2b422b415d95645b9adcfd678cb1d63",
            "0x0000000000000000000000000000000000000000000000000000000000001010",
            "0x0000000000000000000000001aabddec6527c9d37fe4ce191cf96115a101539e",
            "0x000000000000000000000000ede32b0c9587b92ede83665477f7ec261fd85f0a"
          ],
          "data": "0x0000000000000000000000000000000000000000000000000083fb21b1f06b12000000000000000000000000000000000000000000000000438af3f7720de71200000000000000000000000000000000000000000000006b8c6486e5642c68c00000000000000000000000000000000000000000000000004306f8d5c01d7c0000000000000000000000000000000000000000000000006b8ce88207161cd3d2",
          "blockHash": "0xf47b3946b247a509dbb39952cc1b019bc036174206aae37132425c67ed48d3a7",
          "blockNumber": "0x9a84e1",
          "transactionHash": "0x846f26194453a41c23f9627666131d987a76c3c3fcdfbb73891aec02cac7f65d",
          "transactionIndex": "0x4",
          "logIndex": "0xe",
          "removed": false
        }
      ],
      "logsBloom": "0x00000000000000000000000000000000000000000000000000000000000000000000000000000000000000000080000000008000000000000000000000000000000000000000000000000000000000800000000000000000080100000000000000000000000004000000000000000000000000000800000080000000000000000010000000000000000800000000000000000000000080000000000000000000200000000000000000000000000000000000000000000000800000000000004000000000000000000001000000000000000002000004000000100100000000000000000000000000000000000000000000000000000000000000000000100040",
      "type": "0x2",
      "transactionHash": "0x846f26194453a41c23f9627666131d987a76c3c3fcdfbb73891aec02cac7f65d",
      "transactionIndex": "0x4",
      "blockHash": "0xf47b3946b247a509dbb39952cc1b019bc036174206aae37132425c67ed48d3a7",
      "blockNumber": "0x9a84e1",
      "gasUsed": "0x9f6a2",
      "effectiveGasPrice": "0xd3f1f18c8",
      "from": "0x1aabddec6527c9d37fe4ce191cf96115a101539e",
      "to": null,
      "contractAddress": "0x1d43f42fc8e07a88f020c6424af3773015ca6692"
    },
    {
      "status": "0x1",
      "cumulativeGasUsed": "0x12a0ef",
      "logs": [
        {
          "address": "0x14453dc5d6d10bc7c9d8b22ac8814ec14e73a00e",
          "topics": [
            "0xbc7cd75a20ee27fd9adebab32041f755214dbc6bffa90cc0225b39da2e5c2d3b",
            "0x0000000000000000000000001d43f42fc8e07a88f020c6424af3773015ca6692"
          ],
          "data": "0x",
          "blockHash": "0xf47b3946b247a509dbb39952cc1b019bc036174206aae37132425c67ed48d3a7",
          "blockNumber": "0x9a84e1",
          "transactionHash": "0x381dd9c2b6e92f63e748afacf51bc6e3d04430e613ba88187e03b0fdc2dc7d68",
          "transactionIndex": "0x5",
          "logIndex": "0xf",
          "removed": false
        },
        {
          "address": "0x0000000000000000000000000000000000001010",
          "topics": [
            "0x4dfe1bbbcf077ddc3e01291eea2d5c70c2b422b415d95645b9adcfd678cb1d63",
            "0x0000000000000000000000000000000000000000000000000000000000001010",
            "0x0000000000000000000000001aabddec6527c9d37fe4ce191cf96115a101539e",
            "0x000000000000000000000000ede32b0c9587b92ede83665477f7ec261fd85f0a"
          ],
          "data": "0x000000000000000000000000000000000000000000000000000799beb4ac6e0b0000000000000000000000000000000000000000000000004306f8d5bf88088200000000000000000000000000000000000000000000006b8ce88207161cd3d200000000000000000000000000000000000000000000000042ff5f170adb9a7700000000000000000000000000000000000000000000006b8cf01bc5cac941dd",
          "blockHash": "0xf47b3946b247a509dbb39952cc1b019bc036174206aae37132425c67ed48d3a7",
          "blockNumber": "0x9a84e1",
          "transactionHash": "0x381dd9c2b6e92f63e748afacf51bc6e3d04430e613ba88187e03b0fdc2dc7d68",
          "transactionIndex": "0x5",
          "logIndex": "0x10",
          "removed": false
        }
      ],
      "logsBloom": "0x00000000000000000000000000000000400000000000000000000000000000000000000000000000000000000080000000008000000000000000000100000000008000000000000000000000000002800000000000000000000100000000000000000000000004000000000000040000000000000800000080000000000000000100000000000000000000000000000000000000000000000200000400000000200000000000000000000000000000000000000000000000800000000000004000000020000000000001000000000000000002000000000000100000000000000000000000000000000000000000000000000000000000000000000000100040",
      "type": "0x2",
      "transactionHash": "0x381dd9c2b6e92f63e748afacf51bc6e3d04430e613ba88187e03b0fdc2dc7d68",
      "transactionIndex": "0x5",
      "blockHash": "0xf47b3946b247a509dbb39952cc1b019bc036174206aae37132425c67ed48d3a7",
      "blockNumber": "0x9a84e1",
      "gasUsed": "0x92e3",
      "effectiveGasPrice": "0xd3f1f18c8",
      "from": "0x1aabddec6527c9d37fe4ce191cf96115a101539e",
      "to": "0x14453dc5d6d10bc7c9d8b22ac8814ec14e73a00e",
      "contractAddress": null
    }
  ],
  "libraries": [],
  "pending": [],
  "returns": {
    "0": {
      "internal_type": "address",
      "value": "0x14453Dc5d6d10BC7c9D8b22Ac8814Ec14E73a00e"
    }
  },
  "timestamp": 1722362883,
  "chain": 80002,
  "commit": "713fc78"
}